{
  "_format": "hh-sol-artifact-1",
  "contractName": "LinkHub",
  "sourceName": "contracts/LinkHub.sol",
  "abi": [
    {
      "inputs": [],
      "stateMutability": "payable",
      "type": "constructor"
    },
    {
      "anonymous": false,
      "inputs": [
        {
          "indexed": true,
          "internalType": "address",
          "name": "from",
          "type": "address"
        },
        {
          "indexed": false,
          "internalType": "uint256",
          "name": "timestamp",
          "type": "uint256"
        },
        {
          "indexed": false,
          "internalType": "string",
          "name": "message",
          "type": "string"
        }
      ],
      "name": "NewLink",
      "type": "event"
    },
    {
      "inputs": [],
      "name": "getAllLinks",
      "outputs": [
        {
          "components": [
            {
              "internalType": "string",
              "name": "url",
              "type": "string"
            },
            {
              "internalType": "address",
              "name": "linker",
              "type": "address"
            },
            {
              "internalType": "uint256",
              "name": "timestamp",
              "type": "uint256"
            }
          ],
          "internalType": "struct LinkHub.Link[]",
          "name": "",
          "type": "tuple[]"
        }
      ],
      "stateMutability": "view",
      "type": "function"
    },
    {
      "inputs": [],
      "name": "getTotalLinks",
      "outputs": [
        {
          "internalType": "uint256",
          "name": "",
          "type": "uint256"
        }
      ],
      "stateMutability": "view",
      "type": "function"
    },
    {
      "inputs": [
        {
          "internalType": "address",
          "name": "",
          "type": "address"
        }
      ],
      "name": "lastSentAt",
      "outputs": [
        {
          "internalType": "uint256",
          "name": "",
          "type": "uint256"
        }
      ],
      "stateMutability": "view",
      "type": "function"
    },
    {
      "inputs": [
        {
          "internalType": "string",
          "name": "url",
          "type": "string"
        }
      ],
      "name": "link",
      "outputs": [],
      "stateMutability": "nonpayable",
      "type": "function"
    }
  ],
  "bytecode": "0x608060405262000033604051806060016040528060368152602001620015d5603691396200005b60201b620006b01760201c565b60644442620000439190620001a8565b6200004f919062000245565b600281905550620002ec565b620000fb8160405160240162000072919062000168565b6040516020818303038152906040527f41304fac000000000000000000000000000000000000000000000000000000007bffffffffffffffffffffffffffffffffffffffffffffffffffffffff19166020820180517bffffffffffffffffffffffffffffffffffffffffffffffffffffffff8381831617835250505050620000fe60201b60201c565b50565b60008151905060006a636f6e736f6c652e6c6f679050602083016000808483855afa5050505050565b600062000134826200018c565b62000140818562000197565b9350620001528185602086016200020f565b6200015d81620002db565b840191505092915050565b6000602082019050818103600083015262000184818462000127565b905092915050565b600081519050919050565b600082825260208201905092915050565b6000620001b58262000205565b9150620001c28362000205565b9250827fffffffffffffffffffffffffffffffffffffffffffffffffffffffffffffffff03821115620001fa57620001f96200027d565b5b828201905092915050565b6000819050919050565b60005b838110156200022f57808201518184015260208101905062000212565b838111156200023f576000848401525b50505050565b6000620002528262000205565b91506200025f8362000205565b925082620002725762000271620002ac565b5b828206905092915050565b7f4e487b7100000000000000000000000000000000000000000000000000000000600052601160045260246000fd5b7f4e487b7100000000000000000000000000000000000000000000000000000000600052601260045260246000fd5b6000601f19601f8301169050919050565b6112d980620002fc6000396000f3fe608060405234801561001057600080fd5b506004361061004c5760003560e01c806348d9cb94146100515780638826ff301461006f5780638e597b831461009f578063cf2e011e146100bd575b600080fd5b6100596100d9565b6040516100669190610d32565b60405180910390f35b61008960048036038101906100849190610aa0565b61022a565b6040516100969190610e7b565b60405180910390f35b6100a7610242565b6040516100b49190610e7b565b60405180910390f35b6100d760048036038101906100d29190610ac9565b61028d565b005b60606001805480602002602001604051908101604052809291908181526020016000905b82821015610221578382906000526020600020906003020160405180606001604052908160008201805461013090611061565b80601f016020809104026020016040519081016040528092919081815260200182805461015c90611061565b80156101a95780601f1061017e576101008083540402835291602001916101a9565b820191906000526020600020905b81548152906001019060200180831161018c57829003601f168201915b505050505081526020016001820160009054906101000a900473ffffffffffffffffffffffffffffffffffffffff1673ffffffffffffffffffffffffffffffffffffffff1673ffffffffffffffffffffffffffffffffffffffff168152602001600282015481525050815260200190600101906100fd565b50505050905090565b60036020528060005260406000206000915090505481565b60006102856040518060400160405280601781526020017f5765206861766520256420746f74616c206c696e6b7321000000000000000000815250600054610749565b600054905090565b42601e600360003373ffffffffffffffffffffffffffffffffffffffff1673ffffffffffffffffffffffffffffffffffffffff168152602001908152602001600020546102da9190610f8d565b1061031a576040517f08c379a000000000000000000000000000000000000000000000000000000000815260040161031190610e3b565b60405180910390fd5b42600360003373ffffffffffffffffffffffffffffffffffffffff1673ffffffffffffffffffffffffffffffffffffffff16815260200190815260200160002081905550610366610949565b81816000018190525033816020019073ffffffffffffffffffffffffffffffffffffffff16908173ffffffffffffffffffffffffffffffffffffffff16815250504281604001818152505060016000808282546103c39190610f8d565b9250508190555060018190806001815401808255809150506001900390600052602060002090600302016000909190919091506000820151816000019080519060200190610412929190610980565b5060208201518160010160006101000a81548173ffffffffffffffffffffffffffffffffffffffff021916908373ffffffffffffffffffffffffffffffffffffffff1602179055506040820151816002015550506104aa6040518060400160405280600f81526020017f2573206861732073656e742025732100000000000000000000000000000000008152508260200151846107e5565b606460025442446104bb9190610f8d565b6104c59190610f8d565b6104cf91906110c4565b6002819055506105166040518060400160405280601681526020017f52616e646f6d20232067656e6572617465643a20256400000000000000000000815250600254610749565b60326002541161065c5761055f6040518060400160405280600781526020017f257320776f6e210000000000000000000000000000000000000000000000000081525033610884565b6000655af3107a40009050478111156105ad576040517f08c379a00000000000000000000000000000000000000000000000000000000081526004016105a490610e1b565b60405180910390fd5b60003373ffffffffffffffffffffffffffffffffffffffff16826040516105d390610d1d565b60006040518083038185875af1925050503d8060008114610610576040519150601f19603f3d011682016040523d82523d6000602084013e610615565b606091505b5050905080610659576040517f08c379a000000000000000000000000000000000000000000000000000000000815260040161065090610e5b565b60405180910390fd5b50505b3373ffffffffffffffffffffffffffffffffffffffff167f721fd151fe2557e8f6bd63e8765ea1e88890faabdbe812f5e64ce9c5103b914f42846040516106a4929190610e96565b60405180910390a25050565b610746816040516024016106c49190610d54565b6040516020818303038152906040527f41304fac000000000000000000000000000000000000000000000000000000007bffffffffffffffffffffffffffffffffffffffffffffffffffffffff19166020820180517bffffffffffffffffffffffffffffffffffffffffffffffffffffffff8381831617835250505050610920565b50565b6107e1828260405160240161075f929190610deb565b6040516020818303038152906040527f9710a9d0000000000000000000000000000000000000000000000000000000007bffffffffffffffffffffffffffffffffffffffffffffffffffffffff19166020820180517bffffffffffffffffffffffffffffffffffffffffffffffffffffffff8381831617835250505050610920565b5050565b61087f8383836040516024016107fd93929190610da6565b6040516020818303038152906040527fe0e9ad4f000000000000000000000000000000000000000000000000000000007bffffffffffffffffffffffffffffffffffffffffffffffffffffffff19166020820180517bffffffffffffffffffffffffffffffffffffffffffffffffffffffff8381831617835250505050610920565b505050565b61091c828260405160240161089a929190610d76565b6040516020818303038152906040527f319af333000000000000000000000000000000000000000000000000000000007bffffffffffffffffffffffffffffffffffffffffffffffffffffffff19166020820180517bffffffffffffffffffffffffffffffffffffffffffffffffffffffff8381831617835250505050610920565b5050565b60008151905060006a636f6e736f6c652e6c6f679050602083016000808483855afa5050505050565b604051806060016040528060608152602001600073ffffffffffffffffffffffffffffffffffffffff168152602001600081525090565b82805461098c90611061565b90600052602060002090601f0160209004810192826109ae57600085556109f5565b82601f106109c757805160ff19168380011785556109f5565b828001600101855582156109f5579182015b828111156109f45782518255916020019190600101906109d9565b5b509050610a029190610a06565b5090565b5b80821115610a1f576000816000905550600101610a07565b5090565b6000610a36610a3184610eeb565b610ec6565b905082815260208101848484011115610a4e57600080fd5b610a5984828561101f565b509392505050565b600081359050610a708161128c565b92915050565b600082601f830112610a8757600080fd5b8135610a97848260208601610a23565b91505092915050565b600060208284031215610ab257600080fd5b6000610ac084828501610a61565b91505092915050565b600060208284031215610adb57600080fd5b600082013567ffffffffffffffff811115610af557600080fd5b610b0184828501610a76565b91505092915050565b6000610b168383610caf565b905092915050565b610b2781610fe3565b82525050565b610b3681610fe3565b82525050565b6000610b4782610f2c565b610b518185610f4f565b935083602082028501610b6385610f1c565b8060005b85811015610b9f5784840389528151610b808582610b0a565b9450610b8b83610f42565b925060208a01995050600181019050610b67565b50829750879550505050505092915050565b6000610bbc82610f37565b610bc68185610f6b565b9350610bd681856020860161102e565b610bdf816111b1565b840191505092915050565b6000610bf582610f37565b610bff8185610f7c565b9350610c0f81856020860161102e565b610c18816111b1565b840191505092915050565b6000610c30603483610f7c565b9150610c3b826111c2565b604082019050919050565b6000610c53600f83610f7c565b9150610c5e82611211565b602082019050919050565b6000610c76602783610f7c565b9150610c818261123a565b604082019050919050565b6000610c99600083610f60565b9150610ca482611289565b600082019050919050565b60006060830160008301518482036000860152610ccc8282610bb1565b9150506020830151610ce16020860182610b1e565b506040830151610cf46040860182610cff565b508091505092915050565b610d0881611015565b82525050565b610d1781611015565b82525050565b6000610d2882610c8c565b9150819050919050565b60006020820190508181036000830152610d4c8184610b3c565b905092915050565b60006020820190508181036000830152610d6e8184610bea565b905092915050565b60006040820190508181036000830152610d908185610bea565b9050610d9f6020830184610b2d565b9392505050565b60006060820190508181036000830152610dc08186610bea565b9050610dcf6020830185610b2d565b8181036040830152610de18184610bea565b9050949350505050565b60006040820190508181036000830152610e058185610bea565b9050610e146020830184610d0e565b9392505050565b60006020820190508181036000830152610e3481610c23565b9050919050565b60006020820190508181036000830152610e5481610c46565b9050919050565b60006020820190508181036000830152610e7481610c69565b9050919050565b6000602082019050610e906000830184610d0e565b92915050565b6000604082019050610eab6000830185610d0e565b8181036020830152610ebd8184610bea565b90509392505050565b6000610ed0610ee1565b9050610edc8282611093565b919050565b6000604051905090565b600067ffffffffffffffff821115610f0657610f05611182565b5b610f0f826111b1565b9050602081019050919050565b6000819050602082019050919050565b600081519050919050565b600081519050919050565b6000602082019050919050565b600082825260208201905092915050565b600081905092915050565b600082825260208201905092915050565b600082825260208201905092915050565b6000610f9882611015565b9150610fa383611015565b9250827fffffffffffffffffffffffffffffffffffffffffffffffffffffffffffffffff03821115610fd857610fd76110f5565b5b828201905092915050565b6000610fee82610ff5565b9050919050565b600073ffffffffffffffffffffffffffffffffffffffff82169050919050565b6000819050919050565b82818337600083830152505050565b60005b8381101561104c578082015181840152602081019050611031565b8381111561105b576000848401525b50505050565b6000600282049050600182168061107957607f821691505b6020821081141561108d5761108c611153565b5b50919050565b61109c826111b1565b810181811067ffffffffffffffff821117156110bb576110ba611182565b5b80604052505050565b60006110cf82611015565b91506110da83611015565b9250826110ea576110e9611124565b5b828206905092915050565b7f4e487b7100000000000000000000000000000000000000000000000000000000600052601160045260246000fd5b7f4e487b7100000000000000000000000000000000000000000000000000000000600052601260045260246000fd5b7f4e487b7100000000000000000000000000000000000000000000000000000000600052602260045260246000fd5b7f4e487b7100000000000000000000000000000000000000000000000000000000600052604160045260246000fd5b6000601f19601f8301169050919050565b7f547279696e6720746f207769746864726177206d6f7265206d6f6e657920746860008201527f616e2074686520636f6e7472616374206861732e000000000000000000000000602082015250565b7f57616974203330207365636f6e64730000000000000000000000000000000000600082015250565b7f4661696c656420746f207769746864726177206d6f6e65792066726f6d20636f60008201527f6e74726163742e00000000000000000000000000000000000000000000000000602082015250565b50565b61129581610fe3565b81146112a057600080fd5b5056fea26469706673582212203ce9aa596363f0d0e17ab336a66285c04356442e1c7a8000c4d6fddc45a93a4c64736f6c63430008040033596f20796f2c206920616d206120636f6e747261637420616e64206920616d20736d61727420616e6420692067697665206c696e6b73",
  "linkReferences": {},
  "deployedLinkReferences": {}
}